:020000040000fa
:080000000002040000000000f2
:020000040000fa
:100008009a0200009a0200009a0200009a02000078
:100018009a0200009a0200009a0200009a02000068
:100028009a0200009a0200009a0200007e03000073
:100038009a0200009a0200009a0200009a02000048
:100048009a0200009a0200009a0200009a02000038
:100058009a0200009a0200009a0200009a02000028
:100068009a0200009a0200009a0200009a02000018
:100078009a0200009a0200009a0200009a02000008
:100088009a0200009a0200009a0200009a020000f8
:100098009a0200009a0200009a0200009a020000e8
:1000a8009a0200009a0200009a0200009a020000d8
:1000b8009a0200009a0200009a0200009a020000c8
:1000c8009a0200009a0200009a0200009a020000b8
:1000d8009a0200009a0200009a0200009a020000a8
:1000e8009a0200009a0200009a0200009a02000098
:1000f8009a0200009a0200009a0200009a02000088
:100108009a0200009a0200009a0200009a02000077
:100118009a0200009a0200009a0200009a02000067
:100128009a0200009a0200009a0200009a02000057
:100138009a0200009a0200009a0200009a02000047
:100148009a0200009a0200009a0200009a02000037
:100158009a0200009a0200009a0200009a02000027
:100168009a0200009a0200009a0200009a02000017
:100178009a0200009a0200009a0200009a02000007
:100188009a0200009a0200009a0200009a020000f7
:100198009a0200009a0200009a0200009a020000e7
:1001a8009a0200009a0200009a0200009a020000d7
:1001b8009a0200009a0200009a0200009a020000c7
:1001c8009a0200009a0200009a0200009a020000b7
:1001d8009a0200009a0200009a0200009a020000a7
:1001e8009a0200009a0200009a0200009a02000097
:0801f8009a0200009a020000c7
:020000040000fa
:100208009a0200009a0200009a0200009a02000076
:100218009a0200009a0200009a0200009a02000066
:100228009a0200009a0200009a0200007e03000071
:100238009a0200009a0200009a0200009a02000046
:100248009a0200009a0200009a0200009a02000036
:100258009a0200009a0200009a0200009a02000026
:100268009a0200009a0200009a0200009a02000016
:100278009a0200009a0200009a0200009a02000006
:100288009a0200009a0200009a0200009a020000f6
:100298009a0200009a0200009a0200009a020000e6
:1002a8009a0200009a0200009a0200009a020000d6
:1002b8009a0200009a0200009a0200009a020000c6
:1002c8009a0200009a0200009a0200009a020000b6
:1002d8009a0200009a0200009a0200009a020000a6
:1002e8009a0200009a0200009a0200009a02000096
:1002f8009a0200009a0200009a0200009a02000086
:100308009a0200009a0200009a0200009a02000075
:100318009a0200009a0200009a0200009a02000065
:100328009a0200009a0200009a0200009a02000055
:100338009a0200009a0200009a0200009a02000045
:100348009a0200009a0200009a0200009a02000035
:100358009a0200009a0200009a0200009a02000025
:100368009a0200009a0200009a0200009a02000015
:100378009a0200009a0200009a0200009a02000005
:100388009a0200009a0200009a0200009a020000f5
:100398009a0200009a0200009a0200009a020000e5
:1003a8009a0200009a0200009a0200009a020000d5
:1003b8009a0200009a0200009a0200009a020000c5
:1003c8009a0200009a0200009a0200009a020000b5
:1003d8009a0200009a0200009a0200009a020000a5
:1003e8009a0200009a0200009a0200009a02000095
:0803f8009a0200009a020000c5
:020000040000fa
:100400000f8020000e7f22000e01880000000000f7
:10041000000020000000e000020032000001200087
:10042000200288000c000700803f2000010020000f
:1004300011000700000020000000e0000200320070
:1004400000000200000000001a030200000000008b
:100450000040da000000fe004440a9000000200037
:100460000000e0000300320000002000a00188002e
:100470004440a80000000600910188008000780038
:100480000000eb0015003700e280400032a0b4000d
:100490009101ba00e280400032a0b4009102ba009b
:1004a000e280400032a0b4000002eb00472bde00e7
:1004b000f507b200602ce10004003a000059eb009f
:1004c0008301e900fdff3e00040037006128e100e0
:1004d000010032000082eb00040007001101ba00a5
:1004e0000200e000e8ff3a00000006003159ba00bf
:1004f0008301e9000c0032002159ba008301e900b0
:10050000080032000400e00003003a00e2804000ee
:1005100032a0b400f5ff370011d9ba008301e90019
:10052000faff3a008100e800e180400032a0b40008
:10053000000006000040da000000fe008540a9002f
:1005400067026000f58f2f004822dd00460580001d
:100550008682620068006000850272004300de004f
:100560004505880061006000f4bf2f004a00dd00ef
:10057000a50480000502620004027000a404880043
:100580000000060010128800211288000212880064
:10059000000006008560a900670260008580a90050
:1005a0004c22dd00f5ff28004605800086826200af
:1005b0008502720000027800450588000407b20039
:1005c00085ff2f004422de005605800086826200ef
:1005d0008502720068026000550588004322de0033
:1005e000f57f2f0061026200a6048000868262000f
:1005f0004b22dd000008b200850272004700de00d9
:10060000a504880061006000f4ff2e004c00dd00ae
:10061000a50480000502620004027000a4048800a2
:1006200000000600421188000011880011118800a6
:0406300000000600c0
:020000040000fa
:100634000400fa00000f7800110798000600070074
:10064400500007003c0007000002eb0004007800a3
:100654000080fa00000006000000fa009402200066
:10066400343a8800243a80000460a1000470a10098
:10067400243a8800253a800004fe2f000482620098
:10068400243a88001600200084072000a5092000d1
:1006940037742000844b7800854b7800864b7800b3
:1006a4001600200064042000750520002774200033
:1006b400844b7800854b7800864b7800000000005e
:1006c400153a80000400270084826200040021009f
:1006d400848f5200faff3a0000000000153a8000af
:1006e4000402200004826200e00f5200fbff32008b
:1006f4000080fa0000000600841f78003400f8002f
:1007040004002000a40188000000fa008460a9000d
:10071400241680000482ea002416880064168000ef
:100724000482ea00641688000080fa003400f900ac
:100734004f027800004006000000fa0035368000c1
:1007440004fe2f00048262003400b30034368800b3
:100754002535800004fe2f00048262007400b3007b
:100764002435880072012000f1752d0000c82c008a
:10077400abff070060f52f0085ff07000080fa003b
:10078400000006000000fa000082eb0064198800f3
:100794000002eb00041688000002eb0044168800f7
:1007a400c8e2a8000002eb00241688000002eb0057
:1007b40064168800cca2a8000080fa00000006009d
:1007c4000000fa00f2ff2d0011522700f0ff2e0066
:1007d4006bff070070ff2f0057ff07000080fa002f
:0c07e400000006000000fa00ffff3700d4
:020000040000fa
:0407f0000000000005
:020000040000fa
:0200000401f009
:04000000ffff0000fe
:020000040000fa
:0200000401f009
:04000400ffff0000fa
:020000040000fa
:0200000401f009
:04000800ffff0000f6
:020000040000fa
:0200000401f009
:04000c0079ff000078
:020000040000fa
:0200000401f009
:040010009eff00004f
:020000040000fa
:0200000401f009
:040014006dff00007c
:020000040000fa
:0200000401f009
:04001800efff0000f6
:020000040000fa
:0200000401f009
:04001c00dfff000002
:00000001FF
